{
  "contractName": "StartupInvestorPlatform",
  "abi": [
    {
      "anonymous": false,
      "inputs": [
        {
          "indexed": true,
          "internalType": "address",
          "name": "investor",
          "type": "address"
        },
        {
          "indexed": true,
          "internalType": "address",
          "name": "startup",
          "type": "address"
        },
        {
          "indexed": false,
          "internalType": "uint256",
          "name": "amount",
          "type": "uint256"
        }
      ],
      "name": "InvestmentMade",
      "type": "event"
    },
    {
      "anonymous": false,
      "inputs": [
        {
          "indexed": true,
          "internalType": "address",
          "name": "founder",
          "type": "address"
        },
        {
          "indexed": false,
          "internalType": "string",
          "name": "name",
          "type": "string"
        },
        {
          "indexed": false,
          "internalType": "uint256",
          "name": "fundingGoal",
          "type": "uint256"
        }
      ],
      "name": "StartupCreated",
      "type": "event"
    },
    {
      "inputs": [
        {
          "internalType": "address",
          "name": "",
          "type": "address"
        },
        {
          "internalType": "uint256",
          "name": "",
          "type": "uint256"
        }
      ],
      "name": "investments",
      "outputs": [
        {
          "internalType": "address",
          "name": "investorAddress",
          "type": "address"
        },
        {
          "internalType": "uint256",
          "name": "amountInvested",
          "type": "uint256"
        }
      ],
      "stateMutability": "view",
      "type": "function",
      "constant": true
    },
    {
      "inputs": [
        {
          "internalType": "address",
          "name": "",
          "type": "address"
        }
      ],
      "name": "startups",
      "outputs": [
        {
          "internalType": "address payable",
          "name": "founder",
          "type": "address"
        },
        {
          "internalType": "string",
          "name": "name",
          "type": "string"
        },
        {
          "internalType": "string",
          "name": "description",
          "type": "string"
        },
        {
          "internalType": "uint256",
          "name": "fundingGoal",
          "type": "uint256"
        },
        {
          "internalType": "uint256",
          "name": "fundsRaised",
          "type": "uint256"
        }
      ],
      "stateMutability": "view",
      "type": "function",
      "constant": true
    },
    {
      "inputs": [
        {
          "internalType": "string",
          "name": "_name",
          "type": "string"
        },
        {
          "internalType": "string",
          "name": "_description",
          "type": "string"
        },
        {
          "internalType": "uint256",
          "name": "_fundingGoal",
          "type": "uint256"
        }
      ],
      "name": "createStartup",
      "outputs": [],
      "stateMutability": "nonpayable",
      "type": "function"
    },
    {
      "inputs": [
        {
          "internalType": "address",
          "name": "_founder",
          "type": "address"
        }
      ],
      "name": "getStartupDetails",
      "outputs": [
        {
          "internalType": "string",
          "name": "",
          "type": "string"
        },
        {
          "internalType": "string",
          "name": "",
          "type": "string"
        },
        {
          "internalType": "uint256",
          "name": "",
          "type": "uint256"
        },
        {
          "internalType": "uint256",
          "name": "",
          "type": "uint256"
        }
      ],
      "stateMutability": "view",
      "type": "function",
      "constant": true
    },
    {
      "inputs": [
        {
          "internalType": "address",
          "name": "_startup",
          "type": "address"
        }
      ],
      "name": "invest",
      "outputs": [],
      "stateMutability": "payable",
      "type": "function",
      "payable": true
    },
    {
      "inputs": [
        {
          "internalType": "address",
          "name": "_startup",
          "type": "address"
        }
      ],
      "name": "getTotalInvestments",
      "outputs": [
        {
          "internalType": "uint256",
          "name": "",
          "type": "uint256"
        }
      ],
      "stateMutability": "view",
      "type": "function",
      "constant": true
    }
  ],
  "bytecode": "0x608060405234801561001057600080fd5b506112cd806100206000396000f3fe6080604052600436106100555760003560e01c806303f9c7931461005a578063167dcb32146100765780631e23c311146100b65780633e6d9770146100df578063b82e412c1461011d578063cb9bdef41461015e575b600080fd5b610074600480360381019061006f9190610bf8565b61019b565b005b34801561008257600080fd5b5061009d60048036038101906100989190610bf8565b6104bc565b6040516100ad9493929190610f18565b60405180910390f35b3480156100c257600080fd5b506100dd60048036038101906100d89190610c5d565b6106c1565b005b3480156100eb57600080fd5b5061010660048036038101906101019190610c21565b6108b1565b604051610114929190610eef565b60405180910390f35b34801561012957600080fd5b50610144600480360381019061013f9190610bf8565b610912565b604051610155959493929190610e8e565b60405180910390f35b34801561016a57600080fd5b5061018560048036038101906101809190610bf8565b610a78565b604051610192919061101b565b60405180910390f35b600034116101de576040517f08c379a00000000000000000000000000000000000000000000000000000000081526004016101d590610fdb565b60405180910390fd5b60008060008373ffffffffffffffffffffffffffffffffffffffff1673ffffffffffffffffffffffffffffffffffffffff168152602001908152602001600020600101805461022c90611199565b90501161026e576040517f08c379a000000000000000000000000000000000000000000000000000000000815260040161026590610fbb565b60405180910390fd5b346000808373ffffffffffffffffffffffffffffffffffffffff1673ffffffffffffffffffffffffffffffffffffffff16815260200190815260200160002060040160008282546102bf91906110b3565b92505081905550600160008273ffffffffffffffffffffffffffffffffffffffff1673ffffffffffffffffffffffffffffffffffffffff16815260200190815260200160002060405180604001604052803373ffffffffffffffffffffffffffffffffffffffff16815260200134815250908060018154018082558091505060019003906000526020600020906002020160009091909190915060008201518160000160006101000a81548173ffffffffffffffffffffffffffffffffffffffff021916908373ffffffffffffffffffffffffffffffffffffffff1602179055506020820151816001015550506000808273ffffffffffffffffffffffffffffffffffffffff1673ffffffffffffffffffffffffffffffffffffffff16815260200190815260200160002060000160009054906101000a900473ffffffffffffffffffffffffffffffffffffffff1673ffffffffffffffffffffffffffffffffffffffff166108fc349081150290604051600060405180830381858888f19350505050158015610453573d6000803e3d6000fd5b508073ffffffffffffffffffffffffffffffffffffffff163373ffffffffffffffffffffffffffffffffffffffff167fb826c83e0c6778bf4e6accf36f92992ce435eb7ea7e4b214fdd77cc46e418baa346040516104b1919061101b565b60405180910390a350565b60608060008060008060008773ffffffffffffffffffffffffffffffffffffffff1673ffffffffffffffffffffffffffffffffffffffff1681526020019081526020016000206040518060a00160405290816000820160009054906101000a900473ffffffffffffffffffffffffffffffffffffffff1673ffffffffffffffffffffffffffffffffffffffff1673ffffffffffffffffffffffffffffffffffffffff16815260200160018201805461057390611199565b80601f016020809104026020016040519081016040528092919081815260200182805461059f90611199565b80156105ec5780601f106105c1576101008083540402835291602001916105ec565b820191906000526020600020905b8154815290600101906020018083116105cf57829003601f168201915b5050505050815260200160028201805461060590611199565b80601f016020809104026020016040519081016040528092919081815260200182805461063190611199565b801561067e5780601f106106535761010080835404028352916020019161067e565b820191906000526020600020905b81548152906001019060200180831161066157829003601f168201915b5050505050815260200160038201548152602001600482015481525050905080602001518160400151826060015183608001519450945094509450509193509193565b6000835111610705576040517f08c379a00000000000000000000000000000000000000000000000000000000081526004016106fc90610f9b565b60405180910390fd5b60008111610748576040517f08c379a000000000000000000000000000000000000000000000000000000000815260040161073f90610ffb565b60405180910390fd5b6040518060a001604052803373ffffffffffffffffffffffffffffffffffffffff16815260200184815260200183815260200182815260200160008152506000803373ffffffffffffffffffffffffffffffffffffffff1673ffffffffffffffffffffffffffffffffffffffff16815260200190815260200160002060008201518160000160006101000a81548173ffffffffffffffffffffffffffffffffffffffff021916908373ffffffffffffffffffffffffffffffffffffffff1602179055506020820151816001019080519060200190610827929190610ac3565b506040820151816002019080519060200190610844929190610ac3565b5060608201518160030155608082015181600401559050503373ffffffffffffffffffffffffffffffffffffffff167f1e47f29bcc6141ed7bc5db4c8c26989fb61d04a0cdb1ef5348eb7433809763e584836040516108a4929190610f6b565b60405180910390a2505050565b600160205281600052604060002081815481106108cd57600080fd5b9060005260206000209060020201600091509150508060000160009054906101000a900473ffffffffffffffffffffffffffffffffffffffff16908060010154905082565b60006020528060005260406000206000915090508060000160009054906101000a900473ffffffffffffffffffffffffffffffffffffffff169080600101805461095b90611199565b80601f016020809104026020016040519081016040528092919081815260200182805461098790611199565b80156109d45780601f106109a9576101008083540402835291602001916109d4565b820191906000526020600020905b8154815290600101906020018083116109b757829003601f168201915b5050505050908060020180546109e990611199565b80601f0160208091040260200160405190810160405280929190818152602001828054610a1590611199565b8015610a625780601f10610a3757610100808354040283529160200191610a62565b820191906000526020600020905b815481529060010190602001808311610a4557829003601f168201915b5050505050908060030154908060040154905085565b60008060008373ffffffffffffffffffffffffffffffffffffffff1673ffffffffffffffffffffffffffffffffffffffff168152602001908152602001600020600401549050919050565b828054610acf90611199565b90600052602060002090601f016020900481019282610af15760008555610b38565b82601f10610b0a57805160ff1916838001178555610b38565b82800160010185558215610b38579182015b82811115610b37578251825591602001919060010190610b1c565b5b509050610b459190610b49565b5090565b5b80821115610b62576000816000905550600101610b4a565b5090565b6000610b79610b7484611067565b611036565b905082815260208101848484011115610b9157600080fd5b610b9c848285611157565b509392505050565b600081359050610bb381611269565b92915050565b600082601f830112610bca57600080fd5b8135610bda848260208601610b66565b91505092915050565b600081359050610bf281611280565b92915050565b600060208284031215610c0a57600080fd5b6000610c1884828501610ba4565b91505092915050565b60008060408385031215610c3457600080fd5b6000610c4285828601610ba4565b9250506020610c5385828601610be3565b9150509250929050565b600080600060608486031215610c7257600080fd5b600084013567ffffffffffffffff811115610c8c57600080fd5b610c9886828701610bb9565b935050602084013567ffffffffffffffff811115610cb557600080fd5b610cc186828701610bb9565b9250506040610cd286828701610be3565b9150509250925092565b610ce58161111b565b82525050565b610cf481611109565b82525050565b6000610d0582611097565b610d0f81856110a2565b9350610d1f818560208601611166565b610d2881611258565b840191505092915050565b6000610d406018836110a2565b91507f53746172747570206e616d6520697320726571756972656400000000000000006000830152602082019050919050565b6000610d806016836110a2565b91507f5374617274757020646f6573206e6f74206578697374000000000000000000006000830152602082019050919050565b6000610dc06024836110a2565b91507f496e766573746d656e74206d7573742062652067726561746572207468616e2060008301527f7a65726f000000000000000000000000000000000000000000000000000000006020830152604082019050919050565b6000610e266026836110a2565b91507f46756e64696e6720676f616c206d75737420626520677265617465722074686160008301527f6e207a65726f00000000000000000000000000000000000000000000000000006020830152604082019050919050565b610e888161114d565b82525050565b600060a082019050610ea36000830188610cdc565b8181036020830152610eb58187610cfa565b90508181036040830152610ec98186610cfa565b9050610ed86060830185610e7f565b610ee56080830184610e7f565b9695505050505050565b6000604082019050610f046000830185610ceb565b610f116020830184610e7f565b9392505050565b60006080820190508181036000830152610f328187610cfa565b90508181036020830152610f468186610cfa565b9050610f556040830185610e7f565b610f626060830184610e7f565b95945050505050565b60006040820190508181036000830152610f858185610cfa565b9050610f946020830184610e7f565b9392505050565b60006020820190508181036000830152610fb481610d33565b9050919050565b60006020820190508181036000830152610fd481610d73565b9050919050565b60006020820190508181036000830152610ff481610db3565b9050919050565b6000602082019050818103600083015261101481610e19565b9050919050565b60006020820190506110306000830184610e7f565b92915050565b6000604051905081810181811067ffffffffffffffff8211171561105d5761105c611229565b5b8060405250919050565b600067ffffffffffffffff82111561108257611081611229565b5b601f19601f8301169050602081019050919050565b600081519050919050565b600082825260208201905092915050565b60006110be8261114d565b91506110c98361114d565b9250827fffffffffffffffffffffffffffffffffffffffffffffffffffffffffffffffff038211156110fe576110fd6111cb565b5b828201905092915050565b60006111148261112d565b9050919050565b60006111268261112d565b9050919050565b600073ffffffffffffffffffffffffffffffffffffffff82169050919050565b6000819050919050565b82818337600083830152505050565b60005b83811015611184578082015181840152602081019050611169565b83811115611193576000848401525b50505050565b600060028204905060018216806111b157607f821691505b602082108114156111c5576111c46111fa565b5b50919050565b7f4e487b7100000000000000000000000000000000000000000000000000000000600052601160045260246000fd5b7f4e487b7100000000000000000000000000000000000000000000000000000000600052602260045260246000fd5b7f4e487b7100000000000000000000000000000000000000000000000000000000600052604160045260246000fd5b6000601f19601f8301169050919050565b61127281611109565b811461127d57600080fd5b50565b6112898161114d565b811461129457600080fd5b5056fea2646970667358221220da74c4a51bcf9a3b280d96465e0e788acad5356db26df548b77e6754794bc5fa64736f6c63430008000033",
  "immutableReferences": {},
  "source": "// SPDX-License-Identifier: MIT\r\npragma solidity ^0.8.0;\r\n\r\ncontract StartupInvestorPlatform {\r\n    struct Startup {\r\n        address payable founder; // Marked as payable to receive funds\r\n        string name;\r\n        string description;\r\n        uint fundingGoal;\r\n        uint fundsRaised;\r\n    }\r\n\r\n    struct Investor {\r\n        address investorAddress;\r\n        uint amountInvested;\r\n    }\r\n\r\n    mapping(address => Startup) public startups;\r\n    mapping(address => Investor[]) public investments;\r\n\r\n    event StartupCreated(address indexed founder, string name, uint fundingGoal);\r\n    event InvestmentMade(address indexed investor, address indexed startup, uint amount);\r\n\r\n    // Create a new startup\r\n    function createStartup(string memory _name, string memory _description, uint _fundingGoal) public {\r\n        require(bytes(_name).length > 0, \"Startup name is required\");\r\n        require(_fundingGoal > 0, \"Funding goal must be greater than zero\");\r\n\r\n        startups[msg.sender] = Startup(payable(msg.sender), _name, _description, _fundingGoal, 0);\r\n        \r\n        emit StartupCreated(msg.sender, _name, _fundingGoal);\r\n    }\r\n\r\n    // Get details of a startup\r\n    function getStartupDetails(address _founder) public view returns (\r\n        string memory, string memory, uint, uint\r\n    ) {\r\n        Startup memory startup = startups[_founder];\r\n        return (startup.name, startup.description, startup.fundingGoal, startup.fundsRaised);\r\n    }\r\n\r\n    // Investing in a startup\r\n    function invest(address _startup) public payable {\r\n        require(msg.value > 0, \"Investment must be greater than zero\");\r\n        require(bytes(startups[_startup].name).length > 0, \"Startup does not exist\");\r\n\r\n        // Update the funds raised\r\n        startups[_startup].fundsRaised += msg.value;\r\n\r\n        // Record the investment\r\n        investments[_startup].push(Investor(msg.sender, msg.value));\r\n\r\n        // Transfer the funds to the startup founder\r\n        startups[_startup].founder.transfer(msg.value);\r\n\r\n        emit InvestmentMade(msg.sender, _startup, msg.value);\r\n    }\r\n\r\n    // Get total investments for a startup\r\n    function getTotalInvestments(address _startup) public view returns (uint) {\r\n        return startups[_startup].fundsRaised;\r\n    }\r\n}\r\n",
  "sourcePath": "C:\\blockchain project\\startup-investor-platform\\contracts\\StartupInvestorPlatform.sol",
  "compiler": {
    "name": "solc",
    "version": "0.8.0+commit.c7dfd78e.Emscripten.clang"
  },
  "schemaVersion": "3.4.16",
  "updatedAt": "2024-11-09T10:57:31.504Z",
  "networkType": "ethereum",
  "devdoc": {
    "kind": "dev",
    "methods": {},
    "version": 1
  },
  "userdoc": {
    "kind": "user",
    "methods": {},
    "version": 1
  }
}